{
  "_format": "hh-sol-artifact-1",
  "contractName": "RockPaperScissors",
  "sourceName": "contracts/RockPaperScissors.sol",
  "abi": [
    {
      "inputs": [],
      "stateMutability": "nonpayable",
      "type": "constructor"
    },
    {
      "anonymous": false,
      "inputs": [
        {
          "indexed": true,
          "internalType": "uint256",
          "name": "gameID",
          "type": "uint256"
        },
        {
          "indexed": true,
          "internalType": "address",
          "name": "player",
          "type": "address"
        },
        {
          "indexed": false,
          "internalType": "uint8",
          "name": "playerChoice",
          "type": "uint8"
        },
        {
          "indexed": false,
          "internalType": "uint8",
          "name": "houseChoice",
          "type": "uint8"
        },
        {
          "indexed": false,
          "internalType": "uint8",
          "name": "result",
          "type": "uint8"
        }
      ],
      "name": "GameResult",
      "type": "event"
    },
    {
      "inputs": [],
      "name": "ENTRY_FEE",
      "outputs": [
        {
          "internalType": "uint256",
          "name": "",
          "type": "uint256"
        }
      ],
      "stateMutability": "view",
      "type": "function"
    },
    {
      "inputs": [],
      "name": "gameID",
      "outputs": [
        {
          "internalType": "uint256",
          "name": "",
          "type": "uint256"
        }
      ],
      "stateMutability": "view",
      "type": "function"
    },
    {
      "inputs": [],
      "name": "owner",
      "outputs": [
        {
          "internalType": "address",
          "name": "",
          "type": "address"
        }
      ],
      "stateMutability": "view",
      "type": "function"
    },
    {
      "inputs": [
        {
          "internalType": "uint8",
          "name": "_playerChoice",
          "type": "uint8"
        }
      ],
      "name": "play",
      "outputs": [],
      "stateMutability": "payable",
      "type": "function"
    }
  ],
  "bytecode": "0x608060405234801561001057600080fd5b5033600160006101000a81548173ffffffffffffffffffffffffffffffffffffffff021916908373ffffffffffffffffffffffffffffffffffffffff160217905550600080819055506107d7806100686000396000f3fe60806040526004361061003f5760003560e01c806353a04b05146100445780638da5cb5b14610060578063c7dd4b4f1461008b578063f6d361cc146100b6575b600080fd5b61005e600480360381019061005991906103d9565b6100e1565b005b34801561006c57600080fd5b50610075610322565b6040516100829190610447565b60405180910390f35b34801561009757600080fd5b506100a0610348565b6040516100ad919061047b565b60405180910390f35b3480156100c257600080fd5b506100cb61034e565b6040516100d8919061047b565b60405180910390f35b66b1a2bc2ec50000341461012a576040517f08c379a0000000000000000000000000000000000000000000000000000000008152600401610121906104f3565b60405180910390fd5b60008160ff1610158015610142575060028160ff1611155b610181576040517f08c379a00000000000000000000000000000000000000000000000000000000081526004016101789061055f565b60405180910390fd5b6000600361018d610359565b61019791906105ae565b905060008160ff168360ff16036101ff57600290503373ffffffffffffffffffffffffffffffffffffffff166108fc66b1a2bc2ec500009081150290604051600060405180830381858888f193505050501580156101f9573d6000803e3d6000fd5b506102b1565b60008360ff16148015610215575060028260ff16145b80610232575060018360ff16148015610231575060008260ff16145b5b8061024f575060028360ff1614801561024e575060018260ff16145b5b156102ab57600090503373ffffffffffffffffffffffffffffffffffffffff166108fc66b1a2bc2ec500009081150290604051600060405180830381858888f193505050501580156102a5573d6000803e3d6000fd5b506102b0565b600190505b5b3373ffffffffffffffffffffffffffffffffffffffff166000547f01de53df2057bbeb7a0f98e9025767c34cee633819f8a361fb431f9d7a95ab8f8585856040516102fe939291906105ee565b60405180910390a360008081548092919061031890610654565b9190505550505050565b600160009054906101000a900473ffffffffffffffffffffffffffffffffffffffff1681565b60005481565b66b1a2bc2ec5000081565b600032600143610369919061069c565b404260405160200161037d93929190610764565b6040516020818303038152906040528051906020012060001c905090565b600080fd5b600060ff82169050919050565b6103b6816103a0565b81146103c157600080fd5b50565b6000813590506103d3816103ad565b92915050565b6000602082840312156103ef576103ee61039b565b5b60006103fd848285016103c4565b91505092915050565b600073ffffffffffffffffffffffffffffffffffffffff82169050919050565b600061043182610406565b9050919050565b61044181610426565b82525050565b600060208201905061045c6000830184610438565b92915050565b6000819050919050565b61047581610462565b82525050565b6000602082019050610490600083018461046c565b92915050565b600082825260208201905092915050565b7f506c656173652073656e6420302e303520657468657220746f20706c61790000600082015250565b60006104dd601e83610496565b91506104e8826104a7565b602082019050919050565b6000602082019050818103600083015261050c816104d0565b9050919050565b7f496e76616c69642063686f696365000000000000000000000000000000000000600082015250565b6000610549600e83610496565b915061055482610513565b602082019050919050565b600060208201905081810360008301526105788161053c565b9050919050565b7f4e487b7100000000000000000000000000000000000000000000000000000000600052601260045260246000fd5b60006105b982610462565b91506105c483610462565b9250826105d4576105d361057f565b5b828206905092915050565b6105e8816103a0565b82525050565b600060608201905061060360008301866105df565b61061060208301856105df565b61061d60408301846105df565b949350505050565b7f4e487b7100000000000000000000000000000000000000000000000000000000600052601160045260246000fd5b600061065f82610462565b91507fffffffffffffffffffffffffffffffffffffffffffffffffffffffffffffffff820361069157610690610625565b5b600182019050919050565b60006106a782610462565b91506106b283610462565b92508282039050818111156106ca576106c9610625565b5b92915050565b60008160601b9050919050565b60006106e8826106d0565b9050919050565b60006106fa826106dd565b9050919050565b61071261070d82610426565b6106ef565b82525050565b6000819050919050565b6000819050919050565b61073d61073882610718565b610722565b82525050565b6000819050919050565b61075e61075982610462565b610743565b82525050565b60006107708286610701565b601482019150610780828561072c565b602082019150610790828461074d565b60208201915081905094935050505056fea2646970667358221220941d60131be6a5008e194d1272177bc77a70017d10b775694a9605e01d8b797e64736f6c63430008180033",
  "linkReferences": {},
  "deployedLinkReferences": {}
}